:100000000C9462000C948A000C948A000C948A0070
:100010000C948A000C948A000C948A000C948A0038
:100020000C948A000C948A000C948A000C948A0028
:100030000C948A000C948A000C948A000C948A0018
:100040000C9437030C948A000C948A000C948A0058
:100050000C948A000C948A000C948A000C948A00F8
:100060000C948A000C948A000000000023002600F3
:10007000290000000000240027002A0000000000E2
:10008000250028002B0004040404040404040202D4
:100090000202020203030303030301020408102007
:1000A0004080010204081020010204081020000012
:1000B0000008000201000003040700000000000027
:1000C0000000360511241FBECFEFD8E0DEBFCDBF44
:1000D00011E0A0E0B1E0E8EFFAE002C005900D9277
:1000E000A237B107D9F721E0A2E7B1E001C01D9224
:1000F000A939B207E1F710E0C2E6D0E004C02197C9
:10010000FE010E947405C136D107C9F70E94810320
:100110000C947A050C940000833081F028F481302F
:1001200099F08230A9F008958730A9F08830C9F09D
:100130008430B1F4809180008F7D03C08091800075
:100140008F7780938000089584B58F7784BD08955C
:1001500084B58F7DFBCF8091B0008F778093B00006
:1001600008958091B0008F7DF9CF1F93CF93DF93D7
:10017000282F30E0F901E255FF4F8491F901E6564E
:10018000FF4FD491F901EA57FF4FC491CC23A9F056
:10019000162F81110E948C00EC2FF0E0EE0FFF1F54
:1001A000E458FF4FA591B4918FB7F894EC911111D9
:1001B00008C0D095DE23DC938FBFDF91CF911F91D4
:1001C0000895DE2BF8CFCF93DF9390E0FC01E65645
:1001D000FF4F24918A579F4FFC0184918823C9F0D7
:1001E00090E0880F991FFC01EE58FF4FA591B49144
:1001F000FC01E458FF4FC591D49161110DC09FB728
:10020000F8948C91209582238C93888128232883CD
:100210009FBFDF91CF910895623051F49FB7F8945A
:100220003C91822F809583238C93E8812E2BEFCFF6
:100230008FB7F894EC912E2B2C938FBFEACF8E3092
:1002400008F08E508770806480937C0080917A00E3
:10025000806480937A0080917A0086FDFCCF809143
:100260007800909179000895AF92BF92CF92DF927B
:10027000EF92FF920F931F93CF93DF936C017B015B
:100280008B01040F151FEB015E01AE18BF08C017EC
:10029000D10759F06991D601ED91FC910190F0815F
:1002A000E02DC6010995892B79F7C501DF91CF9122
:1002B0001F910F91FF90EF90DF90CF90BF90AF9084
:1002C0000895089590E080E008958F929F92AF92F4
:1002D000BF920F931F93CF93DF93CDB7DEB7A19754
:1002E0000FB6F894DEBF0FBECDBF19A2423008F49E
:1002F0004AE08E010F5D1F4F842E912CB12CA12C52
:10030000A50194010E945205E62FB901CA01EA3005
:1003100044F5E05DD801EE938D01232B242B252B92
:1003200079F790E080E0109769F0FD0101900020DE
:10033000E9F73197AF014A1B5B0BBD0181E891E002
:100340000E943401A1960FB6F894DEBF0FBECDBF58
:10035000DF91CF911F910F91BF90AF909F908F90A1
:100360000895E95CD7CFFC0101900020E9F73197AF
:10037000AF01481B590BBC0181E891E00C9434019A
:10038000CF93DF93EC0160E08E810E94B50061E0C5
:100390008E810E94B50060E08E810E94B5008BE8DE
:1003A00091E00197F1F7DF91CF910895CF92DF921D
:1003B000EF92FF920F931F93CF93DF936C017C0119
:1003C00087E0E80EF11CD0E0C0E0062F10E0B80195
:1003D0000C2E02C0759567950A94E2F76170F701DB
:1003E00081917F010E94B5002196C430D10579F733
:1003F000C601DF91CF911F910F91FF90EF90DF9099
:10040000CF900C94C001CF92DF92EF92FF920F93A6
:100410001F93CF93DF93EC01F62E642F8C810E9403
:10042000B5008D818F3F19F060E00E94B5000F2D5F
:1004300010E08F8584FF25C06E0187E0C80ED11CB7
:10044000F12CE12CB8010E2C02C0759567950A9429
:10045000E2F76170F60181916F010E94B500FFEF34
:10046000EF1AFF0A88E0E816F10461F7CE01DF9188
:10047000CF911F910F91FF90EF90DF90CF900C9450
:10048000C001B80184E0759567958A95E1F7CE01C2
:100490000E94D6016F2DCE01DF91CF911F910F9158
:1004A000FF90EF90DF90CF900C94D60140E0682F42
:1004B00081E891E00C94030281E00E9456028BE3F4
:1004C0009FE10197F1F70895CF93DF93823029F4EC
:1004D0009091900198609093900180939401109274
:1004E000950180E48093960180E18093970180E5F7
:1004F0008093980161E0809185010E94E3008091E2
:1005000086018F3F19F061E00E94E30061E0809175
:1005100087010E94E300C1E8D1E09E0121583140EB
:100520008091900184FD0BC084E090E02196281713
:10053000390744F461E08E810E94E300EECF88E049
:1005400090E0F4CF8BE39DE00197F1F760E08091BC
:1005500085010E94B50060E0809187010E94B5008E
:10056000809186018F3F19F060E00E94B500809174
:10057000900184FD34C063E081E891E00E94D601DF
:10058000CBE4D6E4CE010197F1F763E081E891E096
:100590000E94D6012197F1F763E081E891E00E9483
:1005A000D60183E592E00197F1F762E081E891E0FE
:1005B0000E94D6018091900180620E94560284E0E0
:1005C000809391018CE00E9456020E945C0282E0BE
:1005D0008093920186E0DF91CF910C945602806265
:1005E0000E9456028BE496E40197F1F78091900106
:1005F00080620E94560283E592E00197F1F78091B4
:10060000900180620E945602D5CF909194016917A3
:1006100010F06FEF690FE62FF0E0EF57FE4F94896F
:10062000890F80680C94560241E00E94030281E029
:1006300090E008950F931F93CF93DF938B01877002
:1006400028E0829FC001112480640E945602E801C4
:10065000085F1F4F699181E891E00E941403C01761
:10066000D107C1F7DF91CF911F910F9108951F928C
:100670000F920FB60F9211242F933F938F939F9356
:10068000AF93BF9380917D0190917E01A0917F01F6
:10069000B091800130917C0123E0230F2D3758F574
:1006A0000196A11DB11D20937C0180937D01909343
:1006B0007E01A0937F01B093800180917801909199
:1006C0007901A0917A01B0917B010196A11DB11D24
:1006D0008093780190937901A0937A01B0937B0184
:1006E000BF91AF919F918F913F912F910F900FBE2E
:1006F0000F901F90189526E8230F0296A11DB11D9B
:10070000D2CF789484B5826084BD84B5816084BD85
:1007100085B5826085BD85B5816085BD80916E009F
:10072000816080936E0010928100809181008260D0
:10073000809381008091810081608093810080910D
:1007400080008160809380008091B10084608093FC
:10075000B1008091B00081608093B00080917A00F8
:10076000846080937A0080917A00826080937A001E
:1007700080917A00816080937A0080917A0080680D
:1007800080937A001092C10082E00E94640268E3C4
:1007900071E081E00E941A0360E371E082E00E9450
:1007A0001A0368E271E083E00E941A0360E271E0DC
:1007B00084E00E941A0368E171E085E00E941A0358
:1007C00060E171E086E00E941A0368E071E087E072
:1007D0000E941A0360E071E088E00E941A0360E062
:1007E0008EE00E94E30062E087E00E94E30060E0A8
:1007F00080E00E9405038CE491E00E94B30161E077
:1008000080E00E9405038DE591E00E94B301C5EBF5
:10081000D0E001EA10E09DE8E92E90E0F92EFE011B
:100820008491F801C490F701D490DD2071F081111A
:100830000E948C00ED2DF0E0EE0FFF1FE859FF4FF6
:10084000A591B4918C91C82251F70E945C022FB7F8
:10085000F89480917D0190917E01A0917F01B091EB
:1008600080012FBF8093740190937501A09376014E
:10087000B09377018FB7F89440917D0150917E013C
:1008800060917F01709180018FBF80917401909180
:100890007501A0917601B0917701805F984DAF4FBF
:1008A000BF4F481759076A077B0708F060C08EE002
:1008B0000E941F0184369105ECF68091720190919F
:1008C00073010196909373018093720160E086E05A
:1008D0000E94050361E081E891E00E94140360E05A
:1008E00087E00E94050362E081E891E00E94140322
:1008F00060E088E00E94050363E081E891E00E94E7
:10090000140360E089E00E94050364E081E891E05F
:100910000E94140361E086E00E94050365E081E81F
:1009200091E00E94140361E087E00E94050366E005
:1009300081E891E00E94140361E088E00E940503D1
:1009400067E081E891E00E94140361E089E00E9481
:10095000050368E081E891E00E9414038EE00E94A4
:100960001F0184369105D4F30E945C0283CF0E945C
:100970005C0260E080E00E9405038091720190912A
:10098000730126E0289FE001299FD00D1124D09308
:100990007301C093720160E082E00E94050361E090
:1009A00081E891E00E94140360E083E00E94050367
:1009B00062E081E891E00E94140360E084E00E941C
:1009C000050363E081E891E00E94140360E085E0A4
:1009D0000E94050364E081E891E00E94140361E055
:1009E00082E00E94050365E081E891E00E94140323
:1009F00061E083E00E94050366E081E891E00E94E7
:100A0000140361E084E00E94050367E081E891E05F
:100A10000E94140361E085E00E94050368E081E81C
:100A200091E00E94140361E087E00E9405036E01DB
:100A30000D2E000CEE08FF084AE0C701B601D7FFF3
:100A40000EC041E06DE281E891E00E94030266275A
:100A50007727CB016C197D098E099F094AE00E9416
:100A600065018DE691E00E94B301FFCFE1E8F1E07E
:100A70001382128284E491E09183808386E08483F0
:100A80008FEF858385E0868383E0878382E080879C
:100A900081E081871286138614861586168617864E
:100AA0000C946402A1E21A2EAA1BBB1BFD010DC00F
:100AB000AA1FBB1FEE1FFF1FA217B307E407F5070E
:100AC00020F0A21BB30BE40BF50B661F771F881FEA
:100AD000991F1A9469F760957095809590959B0180
:100AE000AC01BD01CF010895EE0FFF1F0590F491F9
:080AF000E02D0994F894FFCFFA
:100AF8001C181000000000001F1F1F1F1E1C1810CC
:100B08001F1F1F1F0F07030107030100000000003C
:100B18000010181C1E1E1E1E0003070F1F1F1F1F7C
:100B280000181C1E1F1F1F1F000003070F0F0F0FA9
:100B3800000000001403340162016101506C61631C
:100B480065205468652046696E67657200416E6469
:100B58002050726573732053746172740020425080
:020B68004D003E
:00000001FF
