:100000000C945D000C9485000C9485000C94850084
:100010000C9485000C9485000C9485000C9485004C
:100020000C9485000C9485000C9485000C9485003C
:100030000C9485000C9485000C9485000C9485002C
:100040000C9438040C9485000C94A8040C9482043D
:100050000C9485000C9485000C9485000C9485000C
:100060000C9485000C94850000000008000201003B
:100070000003040700000000000000000000000072
:10008000250028002B0000000000240027002A0083
:10009000040404040404040402020202020203032E
:1000A0000303030301020408102040800102040836
:1000B0001020010204081020DA0411241FBECFEF23
:1000C000D8E0DEBFCDBF11E0A0E0B1E0EAE6FCE0A1
:1000D00002C005900D92A634B107D9F722E0A6E43C
:1000E000B1E001C01D92A830B207E1F710E0CDE504
:1000F000D0E004C02197FE010E942D06CC35D10727
:10010000C9F70E9424050C9433060C94000090E07B
:10011000FC01EC55FF4F249180579F4FFC018491C7
:10012000882399F090E0880F991FFC01EA57FF4F50
:10013000A591B491FC01E458FF4F859194918FB73C
:10014000F894EC91E22BEC938FBF089590E0FC01C2
:10015000E859FF4F2491FC01EC55FF4F3491FC010D
:10016000E057FF4FE491EE23C9F0222339F023300A
:1001700001F1A8F4213019F1223029F1F0E0EE0F5D
:10018000FF1FE458FF4FA591B4918FB7F894EC91FD
:10019000611126C030953E233C938FBF08952730D0
:1001A000A9F02830C9F0243049F7809180008F7D74
:1001B00003C0809180008F7780938000DFCF84B56B
:1001C0008F7784BDDBCF84B58F7DFBCF8091B0006E
:1001D0008F778093B000D2CF8091B0008F7DF9CF20
:1001E0003E2BDACF8E3008F08E508770806480937B
:1001F0007C0080917A00806480937A0080917A00FC
:1002000086FDFCCF809178009091790008953FB7EA
:10021000F89480914F0190915001A0915101B091BB
:10022000520126B5A89B05C02F3F19F00196A11DCC
:10023000B11D3FBFBA2FA92F982F8827BC01CD0130
:10024000620F711D811D911D42E0660F771F881F8F
:10025000991F4A95D1F708958F929F92AF92BF92BE
:10026000CF92DF92EF92FF924B015C010E94070157
:100270006B017C010E9407016C197D098E099F09A1
:10028000683E734081059105A8F321E0821A910828
:10029000A108B10888EEC80E83E0D81EE11CF11C4D
:1002A00081149104A104B10429F7FF90EF90DF902D
:1002B000CF90BF90AF909F908F900895AF92BF92D4
:1002C000CF92DF92EF92FF920F931F93CF93DF9322
:1002D0006C017B018B01040F151FEB015E01AE1851
:1002E000BF08C017D10759F06991D601ED91FC9173
:1002F0000190F081E02DC6010995892B79F7C501A0
:10030000DF91CF911F910F91FF90EF90DF90CF90F1
:10031000BF90AF900895FC01538D448D252F30E0A0
:10032000842F90E0821B930B541710F0CF96089502
:1003300001970895FC01918D828D981761F0A28D2F
:10034000AE0FBF2FB11D5D968C91928D9F5F9F73F5
:10035000928F90E008958FEF9FEF0895FC01918DAB
:10036000828D981731F0828DE80FF11D858D90E018
:1003700008958FEF9FEF0895FC01918D228D892FB5
:1003800090E0805C9F4F821B91098F73992708959D
:1003900083E591E00E94BC0121E0892B09F420E073
:1003A000822F089580E090E0892B29F00E94C801F7
:1003B00081110C9400000895FC01A48DA80FB92FA1
:1003C000B11DA35ABF4F2C91848D90E001968F737D
:1003D0009927848FA689B7892C93A089B1898C919C
:1003E000837080648C93938D848D981306C00288EB
:1003F000F389E02D80818F7D80830895EF92FF92B5
:100400000F931F93CF93DF93EC0181E0888F9B8D37
:100410008C8D98131AC0E889F989808185FF15C0F1
:100420009FB7F894EE89FF896083E889F989808114
:100430008370806480839FBF81E090E0DF91CF91E3
:100440001F910F91FF90EF900895F62E0B8D10E005
:100450000F5F1F4F0F731127E02E8C8D8E110CC074
:100460000FB607FCFACFE889F989808185FFF5CFBF
:10047000CE010E94DC01F1CFEB8DEC0FFD2FF11DC1
:10048000E35AFF4FF0829FB7F8940B8FEA89FB89FC
:1004900080818062CFCFCF93DF93EC01888D88235A
:1004A000B9F0AA89BB89E889F9898C9185FD03C0D7
:1004B000808186FD0DC00FB607FCF7CF8C9185FFBC
:1004C000F2CF808185FFEDCFCE010E94DC01E9CF24
:1004D000DF91CF910895089590E080E008958F9284
:1004E0009F92AF92BF920F931F93CF93DF93CDB79D
:1004F000DEB7A1970FB6F894DEBF0FBECDBF19A22D
:10050000423008F44AE08E010F5D1F4F842E912C7B
:10051000B12CA12CA50194010E940B06E62FB90174
:10052000CA01EA3044F5E05DD801EE938D01232B3A
:10053000242B252B79F790E080E0109769F0FD01DE
:1005400001900020E9F73197AF014A1B5B0BBD0119
:1005500080EF91E00E945E01A1960FB6F894DEBF95
:100560000FBECDBFDF91CF911F910F91BF90AF9084
:100570009F908F900895E95CD7CFFC0101900020F7
:10058000E9F73197AF01481B590BBC0180EF91E0AF
:100590000C945E01CF93DF93EC0160E08E810E94AA
:1005A000A60061E08E810E94A60060E08E810E941C
:1005B000A6008BE891E00197F1F7DF91CF910895C4
:1005C000CF92DF92EF92FF920F931F93CF93DF931F
:1005D0006C017C0187E0E80EF11CD0E0C0E0062F42
:1005E00010E0B8010C2E02C0759567950A94E2F7E9
:1005F0006170F70181917F010E94A6002196C430AD
:10060000D10579F7C601DF91CF911F910F91FF902E
:10061000EF90DF90CF900C94CA02CF92DF92EF92CE
:10062000FF920F931F93CF93DF93EC01F62E642F6D
:100630008C810E94A6008D818F3F19F060E00E949E
:10064000A6000F2D10E08F8584FF25C06E0187E086
:10065000C80ED11CF12CE12CB8010E2C02C07595EE
:1006600067950A94E2F76170F60181916F010E942B
:10067000A600FFEFEF1AFF0A88E0E816F10461F721
:10068000CE01DF91CF911F910F91FF90EF90DF90FE
:10069000CF900C94CA02B80184E0759567958A954D
:1006A000E1F7CE010E94E0026F2DCE01DF91CF91E4
:1006B0001F910F91FF90EF90DF90CF900C94E0028C
:1006C00040E0682F80EF91E00C940D03CF93DF930F
:1006D000823029F49091FF0198609093FF018093FC
:1006E00003021092040280E48093050280E180936B
:1006F000060280E5809307028091F4010E94870042
:100700008091F5018F3F11F00E9487008091F601E2
:100710000E948700C0EFD1E09E01205F31408091B0
:10072000FF0184FD0AC084E090E021962817390774
:100730003CF48E810E948700EFCF88E090E0F5CFF7
:100740008BE39DE00197F1F760E08091F4010E9456
:10075000A60060E08091F6010E94A6008091F5015C
:100760008F3F19F060E00E94A6008091FF0184FD98
:1007700039C063E080EF91E00E94E002CBE4D6E470
:10078000CE010197F1F763E080EF91E00E94E00273
:100790002197F1F763E080EF91E00E94E00283E5AA
:1007A00092E00197F1F762E080EF91E00E94E002B1
:1007B0008091FF0180620E94600384E080930002C8
:1007C0008CE00E94600381E00E9460038BE39FE164
:1007D0000197F1F782E08093010286E0DF91CF91EB
:1007E0000C94600380620E9460038BE496E401979E
:1007F000F1F78091FF0180620E94600383E592E03F
:100800000197F1F78091FF0180620E946003D0CFD1
:1008100090910302891710F08FEF890FE82FF0E015
:10082000E051FE4F848980680C94600341E00E948F
:100830000D0381E090E00895CF92DF92EF92FF9256
:100840006B017C0141E06DE280EF91E00E940D03BD
:1008500066277727CB016C197D098E099F094AE02D
:100860000E946F020196FF90EF90DF90CF90089565
:100870001F920F920FB60F9211242F933F938F93D5
:100880009F93AF93BF9380914B0190914C01A091A6
:100890004D01B0914E0130914A0123E0230F2D37D5
:1008A00058F50196A11DB11D20934A0180934B017B
:1008B00090934C01A0934D01B0934E0180914F0154
:1008C00090915001A0915101B09152010196A11D4A
:1008D000B11D80934F0190935001A0935101B093AB
:1008E0005201BF91AF919F918F913F912F910F90A6
:1008F0000FBE0F901F90189526E8230F0296A11D9A
:10090000B11DD2CF1F920F920FB60F9211242F93C9
:100910003F934F935F936F937F938F939F93AF9387
:10092000BF93EF93FF9383E591E00E94DC01FF9179
:10093000EF91BF91AF919F918F917F916F915F9157
:100940004F913F912F910F900FBE0F901F901895D0
:100950001F920F920FB60F9211242F938F939F9394
:10096000EF93FF93E0916301F09164018081E09146
:100970006901F0916A0182FD1BC0908180916C0138
:100980008F5F8F7320916D01821741F0E0916C01B0
:10099000F0E0ED5AFE4F958F80936C01FF91EF913F
:1009A0009F918F912F910F900FBE0F901F901895D0
:1009B0008081F4CFE3E5F1E01382128288EE93E0C8
:1009C000A0E0B0E084839583A683B78384E091E0C0
:1009D0009183808385EC90E09587848784EC90E018
:1009E0009787868780EC90E0918B808B81EC90E0FC
:1009F000938B828B82EC90E0958B848B86EC90E0DD
:100A0000978B868B118E128E138E148EE0EFF1E091
:100A10001382128286E191E0918380838DE084834A
:100A20008FEF85838CE0868389E0878388E08087E9
:100A300087E0818786E0828713861486158616866E
:100A4000178681E00C946603789484B5826084BD37
:100A500084B5816084BD85B5826085BD85B58160C2
:100A600085BD80916E00816080936E001092810040
:100A700080918100826080938100809181008160FB
:100A800080938100809180008160809380008091BC
:100A9000B10084608093B1008091B0008160809348
:100AA000B00080917A00846080937A0080917A000F
:100AB000826080937A0080917A00816080937A00CE
:100AC00080917A00806880937A001092C100E09152
:100AD0006301F091640182E08083E0915F01F09115
:100AE00060011082E0916101F09162018FEC8083DE
:100AF00010926B01E0916701F091680186E08083BC
:100B0000E0916501F0916601808180618083E091D0
:100B10006501F0916601808188608083E0916501C4
:100B2000F0916601808180688083E0916501F09199
:100B3000660180818F7D808382E00E94660380E071
:100B40000E9408048EE191E00E94BD0281E00E94B3
:100B5000080487E291E00E94BD0268EE73E080E045
:100B600090E00E942C01CBE3DFE100E010E08EE09A
:100B70000E94F200909349018093480180E10E9415
:100B8000F200909347018093460181E00E94600348
:100B9000CE010197F1F780E00E94080484E391E020
:100BA0000E94BD026091480170914901072E000C1E
:100BB000880B990B97FF27C00E941C0481E00E94BC
:100BC00008048AE391E00E94BD02609146017091A1
:100BD0004701072E000C880B990B97FF18C00E9445
:100BE0001C0464E170E080E090E00E942C0101159B
:100BF000110509F4BCCF0E94C801882309F4B7CFBE
:100C00000E940000B4CF4AE00E946F02D7CF4AE0B2
:100C10000E946F02E6CFA1E21A2EAA1BBB1BFD01A8
:100C20000DC0AA1FBB1FEE1FFF1FA217B307E407CB
:100C3000F50720F0A21BB30BE40BF50B661F771F23
:100C4000881F991F1A9469F7609570958095909503
:100C50009B01AC01BD01CF010895EE0FFF1F059070
:0A0C6000F491E02D0994F894FFCF01
:100C6A0000000000FE015E018B014B02BC019A01EB
:100C7A00AE010000000016045E016C026B022048FF
:100C8A0065616C74682000204D6F6E69746F7269BB
:100C9A006E67200054656D703D0048656172745F2F
:060CAA00526174653D007B
:00000001FF
